:020000040800F2
:1000000000000220591D0008A91C0008AB1C0008B4
:10001000AD1C0008AF1C0008B11C00080000000067
:10002000000000000000000000000000B31C0008F9
:10003000B51C000800000000B71C0008B91C00082F
:10004000A91D0008A91D0008A91D0008A91D000878
:10005000A91D0008A91D0008A91D0008A91D000868
:10006000A91D0008A91D0008A91D0008A91D000858
:10007000A91D0008A91D0008A91D0008A91D000848
:10008000A91D0008A91D0008A91D0008A91D000838
:10009000A91D0008A91D0008A91D0008A91D000828
:1000A000A91D0008A91D0008A91D0008A91D000818
:1000B000A91D0008A91D0008A91D0008A91D000808
:1000C000A91D0008A91D0008A91D0008A91D0008F8
:1000D000A91D0008A91D0008A91D0008A91D0008E8
:1000E000A91D0008A91D0008A91D0008A91D0008D8
:1000F000A91D0008A91D0008A91D0008A91D0008C8
:10010000A91D0008A91D0008A91D0008A91D0008B7
:10011000A91D0008A91D0008A91D0008A91D0008A7
:10012000A91D0008A91D0008A91D0008A91D000897
:10013000A91D00080000000000000000A91D000823
:10014000A91D0008A91D0008A91D0008A91D000877
:10015000A91D0008A91D0008A91D0008A91D000867
:10016000A91D0008A91D0008A91D0008A91D000857
:10017000A91D0008A91D0008A91D00080000000015
:1001800000000000A91D00080000000000000000A1
:10019000A91D00080000000000000000A91D0008C3
:1001A000000000000000000000000000A91D000881
:1001B000A91D0008A91D0008A91D0008A91D000807
:0401C000A91D00086D
:1001D00010B5054C237833B9044B13B10448AFF381
:1001E00000800123237010BDDC010020000000000E
:1001F0002045000808B5034B1BB103490348AFF382
:10020000008008BD00000000E0010020204500083B
:10021000034613F8012B002AFBD1181A0138704746
:1002200001F0FF01102A2BDB10F0070F08D010F8A7
:10023000013B013A8B422DD010F0070F42B3F6D1AB
:10024000F0B441EA012141EA014122F007047FF0C4
:1002500000070023F0E80256083C85EA010586EA1B
:10026000010685FA47F5A3FA87F586FA47F6A5FA57
:1002700087F68EB9EED1F0BC01F0FF0102F0070263
:1002800032B110F8013B013A83EA010313B1F8D10E
:100290000020704701387047002D06BF35460338EF
:1002A000073815F0010F07D1013015F4807F02BF28
:1002B000013015F4C03F0130F0BC0138704700BF79
:1002C00081F0004102E000BF83F0004330B54FEA07
:1002D00041044FEA430594EA050F08BF90EA020F74
:1002E0001FBF54EA000C55EA020C7FEA645C7FEA07
:1002F000655C00F0E2804FEA5454D4EB5555B8BF2A
:100300006D420CDD2C4480EA020281EA030382EA9A
:10031000000083EA010180EA020281EA0303362D2C
:1003200088BF30BD11F0004F4FEA01314FF4801CFF
:100330004CEA113102D0404261EB410113F0004F11
:100340004FEA03334CEA133302D0524263EB4303C8
:1003500094EA050F00F0A780A4F10104D5F1200E66
:100360000DDB02FA0EFC22FA05F2801841F10001C1
:1003700003FA0EF2801843FA05F359410EE0A5F195
:1003800020050EF1200E012A03FA0EFC28BF4CF0C6
:10039000020C43FA05F3C01851EBE37101F000457C
:1003A00007D54FF0000EDCF1000C7EEB00006EEB89
:1003B0000101B1F5801F1BD3B1F5001F0CD3490813
:1003C0005FEA30004FEA3C0C04F101044FEA44526A
:1003D00012F5800F80F09A80BCF1004F08BF5FEAF1
:1003E000500C50F1000041EB045141EA050130BDD1
:1003F0005FEA4C0C404141EB010111F4801FA4F174
:100400000104E9D191F0000F04BF01460020B1FAC8
:1004100081F308BF2033A3F10B03B3F120020CDA00
:100420000C3208DD02F1140CC2F10C0201FA0CF0DE
:1004300021FA02F10CE002F11402D8BFC2F1200C43
:1004400001FA02F120FA0CFCDCBF41EA0C019040F9
:10045000E41AA2BF01EB0451294330BD6FEA040442
:100460001F3C1CDA0C340EDC04F11404C4F120022D
:1004700020FA04F001FA02F340EA030021FA04F33F
:1004800045EA030130BDC4F10C04C4F1200220FA96
:1004900002F001FA04F340EA0300294630BD21FAD4
:1004A00004F0294630BD94F0000F83F4801306BF9A
:1004B00081F480110134013D4EE77FEA645C18BF8E
:1004C0007FEA655C29D094EA050F08BF90EA020F25
:1004D00005D054EA000C04BF1946104630BD91EA1D
:1004E000030F1EBF0021002030BD5FEA545C05D120
:1004F0004000494128BF41F0004130BD14F580045F
:100500003CBF01F5801130BD01F0004545F0FE41D2
:1005100041F470014FF0000030BD7FEA645C1ABF07
:10052000194610467FEA655C1CBF0B46024650EA3E
:10053000013406BF52EA033591EA030F41F400216A
:1005400030BD00BF90F0000F04BF0021704730B5F0
:100550004FF4806404F132044FF000054FF00001C5
:1005600050E700BF90F0000F04BF0021704730B586
:100570004FF4806404F1320410F0004548BF40425B
:100580004FF000013EE700BF42004FEAE2014FEAB0
:1005900031014FEA02701FBF12F07F4393F07F4F8B
:1005A00081F06051704792F0000F14BF93F07F4FBD
:1005B000704730B54FF4607401F0004521F0004100
:1005C00020E700BF50EA010208BF704730B54FF086
:1005D00000050AE050EA010208BF704730B511F08B
:1005E000004502D5404261EB41014FF4806404F1C3
:1005F00032045FEA915C3FF4DCAE4FF003025FEA45
:10060000DC0C18BF03325FEADC0C18BF033202EBCC
:10061000DC02C2F1200300FA03FC20FA02F001FA26
:1006200003FE40EA0E0021FA02F11444C1E600BFC5
:1006300070B54FF0FF0C4CF4E06C1CEA11541DBF78
:100640001CEA135594EA0C0F95EA0C0F00F0DEF843
:100650002C4481EA030621EA4C5123EA4C5350EA28
:10066000013518BF52EA033541F4801143F4801379
:1006700038D0A0FB02CE4FF00005E1FB02E506F00A
:100680000042E0FB03E54FF00006E1FB03569CF05F
:10069000000F18BF4EF0010EA4F1FF04B6F5007F65
:1006A00064F5407404D25FEA4E0E6D4146EB0606D7
:1006B00042EAC62141EA55514FEAC52040EA5E5060
:1006C0004FEACE2EB4F1FD0C88BFBCF5E06F1ED80A
:1006D000BEF1004F08BF5FEA500E50F1000041EB41
:1006E000045170BD06F0004646EA010140EA0200EE
:1006F00081EA0301B4EB5C04C2BFD4EB0C0541EA10
:10070000045170BD41F480114FF0000E013C00F324
:10071000AB8014F1360FDEBF002001F0004170BD48
:10072000C4F10004203C35DA0C341BDC04F1140461
:10073000C4F1200500FA05F320FA04F001FA05F2ED
:1007400040EA020001F0004221F0004110EBD370BA
:1007500021FA04F642EB06015EEA430E08BF20EAE6
:10076000D37070BDC4F10C04C4F1200500FA04F389
:1007700020FA05F001FA04F240EA020001F000411B
:1007800010EBD37041F100015EEA430E08BF20EA8E
:10079000D37070BDC4F1200500FA05F24EEA020ED6
:1007A00020FA04F301FA05F243EA020321FA04F005
:1007B00001F0004121FA04F220EA020000EBD370BC
:1007C0005EEA430E08BF20EAD37070BD94F0000FBC
:1007D0000FD101F00046400041EB010111F4801FF0
:1007E00008BF013CF7D041EA060195F0000F18BFA1
:1007F000704703F00046520043EB030313F4801FDD
:1008000008BF013DF7D043EA0603704794EA0C0F96
:100810000CEA135518BF95EA0C0F0CD050EA4106AC
:1008200018BF52EA4306D1D181EA030101F0004129
:100830004FF0000070BD50EA410606BF1046194651
:1008400052EA430619D094EA0C0F02D150EA01365D
:1008500013D195EA0C0F05D152EA03361CBF10469E
:1008600019460AD181EA030101F0004141F0FE413D
:1008700041F470014FF0000070BD41F0FE4141F4C1
:10088000780170BD70B54FF0FF0C4CF4E06C1CEAC1
:1008900011541DBF1CEA135594EA0C0F95EA0C0F76
:1008A00000F0A7F8A4EB050481EA030E52EA033531
:1008B0004FEA013100F088804FEA03334FF0805552
:1008C00045EA131343EA12634FEA022245EA11157F
:1008D00045EA10654FEA00260EF000419D4208BF30
:1008E000964244F1FD0404F5407402D25B084FEADD
:1008F0003202B61A65EB03055B084FEA32024FF489
:1009000080104FF4002CB6EB020E75EB030E22BFE5
:10091000B61A754640EA0C005B084FEA3202B6EBA5
:10092000020E75EB030E22BFB61A754640EA5C0054
:100930005B084FEA3202B6EB020E75EB030E22BFE4
:10094000B61A754640EA9C005B084FEA3202B6EBE5
:10095000020E75EB030E22BFB61A754640EADC00A4
:1009600055EA060E18D04FEA051545EA16754FEA06
:1009700006164FEAC30343EA52734FEAC2025FEA24
:100980001C1CC0D111F4801F0BD141EA00014FF0B3
:1009900000004FF0004CB6E711F4801F04BF014384
:1009A0000020B4F1FD0C88BFBCF5E06F3FF6AFAEA0
:1009B000B5EB030C04BFB6EB020C5FEA500C50F130
:1009C000000041EB045170BD0EF0004E4EEA1131B3
:1009D00014EB5C04C2BFD4EB0C0541EA045170BDBA
:1009E00041F480114FF0000E013C90E645EA060EFE
:1009F0008DE60CEA135594EA0C0F08BF95EA0C0F2C
:100A00003FF43BAF94EA0C0F0AD150EA01347FF473
:100A100034AF95EA0C0F7FF425AF104619462CE74A
:100A200095EA0C0F06D152EA03353FF4FDAE1046AD
:100A3000194622E750EA410618BF52EA43067FF4FE
:100A4000C5AE50EA41047FF40DAF52EA43057FF48E
:100A5000EBAE12E74FF0FF3C06E000BF4FF0010C99
:100A600002E000BF4FF0010C4DF804CD4FEA410CFD
:100A70007FEA6C5C4FEA430C18BF7FEA6C5C1BD0CA
:100A800001B050EA410C0CBF52EA430C91EA030F4B
:100A900002BF90EA020F0020704710F1000F91EAA8
:100AA000030F58BF994208BF90422CBFD8176FEA76
:100AB000E37040F0010070474FEA410C7FEA6C5C44
:100AC00002D150EA013C07D14FEA430C7FEA6C5C4B
:100AD000D6D152EA033CD3D05DF8040B704700BF77
:100AE0008446104662468C461946634600E000BFC5
:100AF00001B5FFF7B7FF002848BF10F1000F01BD97
:100B00004DF808EDFFF7F4FF0CBF012000205DF861
:100B100008FB00BF4DF808EDFFF7EAFF34BF0120E6
:100B200000205DF808FB00BF4DF808EDFFF7E0FF7F
:100B300094BF012000205DF808FB00BF4DF808EDD0
:100B4000FFF7CEFF94BF012000205DF808FB00BF37
:100B50004DF808EDFFF7C4FF34BF012000205DF819
:100B600008FB00BF4FEA410C7FEA6C5C02D150EAFF
:100B7000013C0AD14FEA430C7FEA6C5C02D152EA95
:100B8000033C02D14FF0000070474FF00100704766
:100B90004FEA410212F5001215D211D56FF47873A5
:100BA000B3EB625212D94FEAC12343F0004343EA48
:100BB000505311F0004F23FA02F018BF4042704723
:100BC0004FF00000704750EA013005D111F00040AD
:100BD00008BF6FF0004070474FF00000704700BF43
:100BE00053B94AB9002908BF00281CBF4FF0FF3194
:100BF0004FF0FF3000F07AB9ADF1080C6DE904CE8A
:100C000000F006F8DDF804E0DDE9022304B07047E7
:100C10002DE9F0478C460D460446089E002B51D125
:100C20008A4217466DD9B2FA82FEBEF1000F0BD090
:100C3000CEF1200C01FA0EF520FA0CFC02FA0EF7A8
:100C40004CEA050C00FA0EF44FEA174A250CBCFBDF
:100C5000FAF81FFA87F90AFB18CC45EA0C4508FB9D
:100C600009F3AB420AD9ED1908F1FF3280F0238174
:100C7000AB4240F22081A8F102083D44ED1AA4B233
:100C8000B5FBFAF00AFB105544EA054400FB09F9EC
:100C9000A14509D9E41900F1FF3380F00A81A1458B
:100CA00040F2078102383C44A4EB090440EA0840C2
:100CB0000021002E61D024FA0EF40023346073600A
:100CC000BDE8F0878B4207D9002E54D0002186E87A
:100CD00021000846BDE8F087B3FA83F1002940F00F
:100CE0008E80AB4202D3824200F2FA80841A65EB16
:100CF00003050120AC46002E3FD086E81010BDE869
:100D0000F08712B90127B7FBF2F7B7FA87FEBEF1F9
:100D1000000F34D1EB1B3A0C1FFA87FC0121B3FB07
:100D2000F2F8250C02FB183345EA03450CFB08F3E7
:100D3000AB4207D9ED1908F1FF3002D2AB4200F205
:100D4000D1808046ED1AA3B2B5FBF2F002FB10553C
:100D500043EA05440CFB00FCA44507D9E41900F163
:100D6000FF3302D2A44500F2B8801846A4EB0C046D
:100D700040EA08409DE731463046BDE8F087CEF1B5
:100D8000200405FA0EF307FA0EF720FA04F83A0CDD
:100D900025FA04F448EA0308B4FBF2F14FEA1845D7
:100DA00002FB11441FFA87FC45EA044501FB0CF3E2
:100DB000AB4200FA0EF409D9ED1901F1FF3080F0D1
:100DC0008A80AB4240F2878002393D44EB1A1FFA19
:100DD00088F5B3FBF2F002FB103345EA034500FB54
:100DE0000CF3AB4207D9ED1900F1FF386FD2AB42DB
:100DF0006DD902383D44EB1A40EA01418FE7C1F159
:100E0000200722FA07F88B4005FA01F448EA0303A9
:100E100020FA07FE4FEA134CFD404EEA040EB5FBE4
:100E2000FCF94FEA1E440CFB19551FFA83F844EAFB
:100E3000054509FB08F4AC4202FA01F200FA01FA96
:100E400008D9ED1809F1FF3043D2AC4241D9A9F1DC
:100E500002091D442D1B1FFA8EFEB5FBFCF00CFB96
:100E600010554EEA054400FB08F8A04507D9E418E0
:100E700000F1FF3529D2A04527D902381C4440EAA9
:100E80000940A4EB0804A0FB02894C45C6464D4628
:100E900015D312D056B1BAEB0E0364EB050404FA75
:100EA00007F7CB401F43CC40376074600021BDE89A
:100EB000F0871846F8E69046E0E6C245EAD2B8EB7D
:100EC000020E69EB03050138E4E72846D7E7404600
:100ED00091E78146BEE7014678E702383C4445E7A2
:100EE000084608E7A8F102083D442BE7704700BF19
:100EF00038B50E4A0E4B054618784FF47A73B3FB9B
:100F0000F0F31068B0FBF3F000F09CF8044658B919
:100F10000F2D09D8024629464FF0FF3000F05EF849
:100F2000044B20461D6038BD012038BD080000205C
:100F3000000000200400002008B50B4B1A6842F4A2
:100F400000721A601A6842F480621A601A6842F4E9
:100F500080721A60032000F02FF80020FFF7C8FF0E
:100F600000F04CFE002008BD003C0240034A044B48
:100F700011681B780B441360704700BF0402002007
:100F800000000020014B1868704700BF04020020D9
:100F900038B50446FFF7F6FF631C1CBF054B1B78F2
:100FA000054618BFE418FFF7EDFF401B8442FAD84E
:100FB00038BD00BF00000020074AD36823F4E06377
:100FC0001B041B0C43F0BF63000243F4003300F426
:100FD000E0600343D360704700ED00E0174B30B58D
:100FE000DC68C4F30224C4F10703251D042B28BFC9
:100FF0000423062D4FF0010505FA03F303F1FF3337
:101000008CBF033C00241940A14005FA04F4013CC4
:101010002240002842EA01024FEA0212ADBF00F16D
:10102000604000F00F00064B00F56140B5BFD2B242
:10103000D2B21A5480F8002330BD00BF00ED00E0AA
:1010400014ED00E00138B0F1807F0AD2064B074A68
:101050005860F02182F823100020072298601A605F
:1010600070470120704700BF10E000E000ED00E095
:101070002DE9F04F85B00B68DFF8A081654ADFF8F5
:10108000A091019300230124019D9C402540AC4286
:1010900040F0AC804C6824F0100C0CF1FF36012EAF
:1010A0004FEA430E12D88768032606FA0EF627EA9F
:1010B0000607CE6806FA0EF63E4386604768C4F31C
:1010C000001627EA05079E403E4346600326C76890
:1010D00006FA0EF6F64307EA060A8F6807FA0EF7D5
:1010E00047EA0A07BCF1020FC76016D14FEAD30ADC
:1010F00000EB8A0A03F0070BDAF820704FEA8B0B3B
:101100004FF00F0C0CFA0BFC27EA0C0C0F6907FAD6
:101110000BF747EA0C07CAF8207007683E4004F056
:10112000030707FA0EFE4EEA06060660E6005DD5E6
:101130004FF0000BCDF80CB0D8F84470364E47F4A1
:101140008047C8F84470D8F8447007F48047039784
:10115000039F23F0030707F1804707F59C3703F04F
:10116000030CD7F808A04FEA8C0C4FF00F0E0EFAC4
:101170000CFEB0422AEA0E0E3FD006F58066B04261
:101180003DD006F58066B0423BD006F58066B042A1
:1011900039D006F58066B04237D0484537D006F5DD
:1011A0000066B04214BF0726062606FA0CF646EA89
:1011B0000E06BE601668EF4314F4803F0CBF3E403D
:1011C0002E431660566814F4003F0CBF3E402E4379
:1011D0005660966814F4801F0CBF3E402E43966004
:1011E000D668A40254BF3E402E43D6600133102B74
:1011F0007FF449AF05B0BDE8F08F5E46D5E7012624
:10120000D3E70226D1E70326CFE70426CDE705265C
:10121000CBE700BF003C0140000002400038024024
:10122000001402400AB1816170470904FBE7436979
:1012300031EA030308BF09048161704737B5002311
:101240000193184B184C1A6C42F080521A641B6CB4
:1012500003F080530193019B144B01221A60FFF7A6
:1012600091FE05466368DA030BD5114B0E4C012243
:101270001A60FFF787FE054663689B030AD50020C6
:1012800006E0FFF77FFE401BB0F57A7FEAD9032026
:1012900003B030BDFFF776FE401BB0F57A7FEBD987
:1012A000F5E700BF003802400070004040000E42E9
:1012B00044000E422DE9F0410D46044610B90120CC
:1012C000BDE8F081444B1A6802F00F028A4229D32C
:1012D00021688F072ED4C80741D43F4B1A6802F00B
:1012E0000F02954267D3226851076DD4130707D5C3
:1012F0003A4A2169936823F4604343EAC103936047
:1013000000F094F8354B364A9B68C3F30313D35C63
:10131000D840344B1860344B1868FFF7E9FD0020C3
:10132000BDE8F081CAB21A701B6803F00F0399423E
:10133000C5D1CDE7294B11F0040F1EBF9A6842F4C6
:10134000E0529A600E0742BF9A6842F460429A6087
:101350009A68A06822F0F00202439A60BBE76268D4
:101360001E4B012A1DD11B6813F4003FA7D01B4E52
:10137000B36823F003031343B360FFF703FE41F2A6
:1013800088380746B368626803F00C03B3EB820F3A
:10139000A3D0FFF7F7FDC01B4045F3D90320BDE8FC
:1013A000F081911E01291B6802D813F0007FDDE750
:1013B00013F0020FDAE7EAB21A701B6803F00F03AA
:1013C0009D427FF47CAF8EE70449E0688B6823F48C
:1013D000E05303438B6089E7003C02400038024041
:1013E000544500080800002004000020044B054A72
:1013F0009B68C3F38223D35C034A1068D8407047CC
:10140000003802406445000808000020044B054AEB
:101410009B68C3F34233D35C034A1068D8407047DB
:10142000003802406445000808000020204908B543
:101430008B6803F00C03082B07D00C2B20D01D4A1F
:101440001D48042B18BF104608BD4A684B68496800
:1014500013F4800314BF18481648C1F3881118BF4D
:10146000002302F03F02A1FB0001FFF7B9FB104B84
:101470005B68C3F3014301335B00B0FBF3F008BDCD
:101480004A684B68496813F4800314BF0A48094846
:10149000C1F3881118BF002302F03F02A1FB000135
:1014A000FFF79EFB024B5B68C3F30273E5E700BFE7
:1014B000003802400024F40000127A0003682DE98D
:1014C000F341DF07044610D423689E0767D42368DE
:1014D0001A0700F1B28023685B0700F1D080A2698F
:1014E000002A40F0398100201EE0974B9A6802F0F4
:1014F0000C02042A10D09A6802F00C02082A02D1C9
:101500005B685D0208D4904B9A6802F00C020C2ACA
:101510000DD15A6850020AD58B4B1B689903D3D55D
:101520006368002BD0D1012002B0BDE8F081626871
:10153000B2F5803F11D11A6842F480321A60FFF789
:1015400021FD814D06462B689A03BDD4FFF71AFD95
:10155000801B6428F7D90320E6E77B4DB2F5A02F66
:101560002B6807D143F480232B602B6843F480332E
:101570002B60E4E723F480332B602B6823F4802373
:101580002B60002ADBD1FFF7FDFC06462B689B038E
:101590009AD5FFF7F7FC801B6428F7D9DBE76A4B85
:1015A0009A6812F00C0F10D09A6802F00C02082A08
:1015B00002D15B685F0208D5634A936803F00C03AD
:1015C0000C2B11D153685E020ED45F4B1A6895073D
:1015D00002D5E268012AA6D11A68216922F0F80230
:1015E00042EAC1021A6072E7E268584BB2B10122C6
:1015F0001A60FFF7C7FC544D06462B68980707D5BD
:101600002B68226923F0F80343EAC2032B605EE7EC
:10161000FFF7B8FC801B0228EFD99CE71A60FFF7A0
:10162000B1FC494D06462B6899077FF550AFFFF78F
:10163000A9FC801B0228F6D98DE76269444B7AB178
:1016400001221A60FFF79EFC3F4D06466B6F9F0715
:101650003FF541AFFFF796FC801B0228F6D97AE7E9
:101660001A60FFF78FFC384D06466B6F98077FF5C1
:1016700032AFFFF787FC801B0228F6D96BE7324BAD
:101680001A6C12F0805228D101921A6C42F08052EA
:101690001A641B6C03F080530193019B01262D4DAE
:1016A0002B68D9051BD5A368274D012B27D12B6F9C
:1016B00043F001032B67FFF765FC234D074641F21A
:1016C00088382B6F9B0739D5002E3FF408AF1E4A90
:1016D000136C23F08053136401E70026DFE72B68C7
:1016E00043F480732B60FFF74DFC07462B68DA0547
:1016F000D9D4FFF747FCC01B0228F7D92BE7052BED
:1017000004D12B6F43F004032B67D0E72A6F22F03C
:1017100001022A672A6F22F004022A67002BCAD12D
:10172000FFF730FC41F2883807462B6F9807CBD57E
:10173000FFF728FCC01B4045F7D90CE7FFF722FC58
:10174000C01B4045BDD906E70038024000004742B3
:10175000800E474200700040234DAB6803F00C033D
:10176000082B3FF4E0AE214E0023022A33602DD136
:10177000FFF708FC07462B68990121D4226AE36928
:101780001343626A43EA8213E26A43EA0263226B0A
:1017900043EA0273A26A144C5208013A43EA024334
:1017A0006B6001233360FFF7EDFB054623689A0168
:1017B0003FF599AEFFF7E6FB401B0228F6D9CAE6D3
:1017C000FFF7E0FBC01B0228D5D9C4E6FFF7DAFB20
:1017D00004462B689B017FF586AEFFF7D3FB001B09
:1017E0000228F6D9B7E600BF003802406000474241
:1017F00038B50368C1681A69044622F440520A43A6
:101800001A612569A268D968C0692A43656921F40B
:1018100016412A4321F00C0102430A43DA605A6957
:10182000A16922F440720A43B0F5004F5A61254A7B
:1018300029D1934203D002F58062934220D1FFF771
:10184000E5FD6268256892184FF000034FF019011A
:101850005B41A0FB0101FFF7C3F96421B0FBF1F488
:1018600001FB1403DB003233B3FBF1F303F0070297
:101870005B0002EB041203F4F8731344AB6038BD51
:10188000FFF7B4FDDDE7934202D00F4A934216D131
:10189000FFF7BCFD6368256819219A00A0FB0101D0
:1018A0009B0FFFF79DF96422B0FBF2F102FB1103DD
:1018B0001B013233B3FBF2F303EB0113DEE7FFF757
:1018C00095FDE7E70010014000140140F8B504461B
:1018D0000E4617461D4621680B6836EA030301D100
:1018E0000020F8BD6B1CF7D095B92368DA6822F4A4
:1018F000D072DA605A6922F001025A61202384F81A
:10190000393084F83A30002384F838300320F8BDA9
:10191000FFF738FBC01B8542DDD2E6E710B5044671
:1019200040B390F8393003F0FF021BB980F838203B
:1019300000F084F92268242384F83930D36823F432
:101940000053D3602046FFF753FF23681A6922F43F
:1019500090421A615A6922F02A025A61DA6842F406
:101960000052DA6000202023E06384F8393084F8E4
:101970003A3010BD012010BD2DE9F8431F4690F804
:101980003930202B04460D46904651D100294CD0C9
:10199000002A4AD090F83830012B49D0012380F832
:1019A00038304FF000092123C0F83C9080F83930DE
:1019B000FFF7E8FAA4F824800646A4F8268084F805
:1019C0003890E38C9BB25BB93B46324640212046BF
:1019D000FFF77CFFA0B9202384F83930BDE8F883F5
:1019E000E38C013B9BB2E384A368B3F5805F32468E
:1019F0003B464FF0800120460ED1FFF767FF10B144
:101A00000320BDE8F8832B882268C3F308035360E2
:101A1000236943B90235D4E7FFF758FF0028EFD117
:101A200023682A785A600135CBE70120BDE8F883A6
:101A30000220BDE8F883000030B595B034220021C3
:101A400007A800F01DFA0021142202A800F018FADD
:101A500000251D4B00951A6C42F080521A641B6CD5
:101A600003F080530093009B184B01951A6842F4D1
:101A700040421A601B680E9503F440430193019B9A
:101A800001230A93102302240B930F9307A84FF40A
:101A9000B473109307940D94119412941394FFF758
:101AA0000DFDFFF7CBFB0F2302934FF4A0530593DB
:101AB00005214FF4805302A8039404950693FFF781
:101AC000F9FB15B030BD00BF003802400070004087
:101AD00000B514258DB0FFF72FFAFFF7ADFF2A46AA
:101AE000002107A800F0CCF900243B4B03941A6BAB
:101AF0003A4842F004021A631A6B02F0040203929D
:101B0000039A04941A6B42F080021A631A6B02F073
:101B100080020492049A05941A6B42F001021A633F
:101B20001A6B02F001020592059A06941A6B42F0B4
:101B300002021A631B6B03F0020322460693202164
:101B4000069BFFF76FFB4FF40053079307A9244B45
:101B5000244808930994FFF78BFA202307A90793D9
:101B60001E480994012308930A94FFF781FA1E483E
:101B70001E4A84604FF4E13380E80C000C2343617B
:101B8000C46004618461C461FFF7C8FE9FED180A58
:101B900000F00CF910EE100AFEF7F6FC0CA3D3E9E6
:101BA0000023CDE90001134800F0DEFDD4FA15F161
:101BB00011480A4C00F0D8FD20462021FFF737FBE2
:101BC0004FF47A70FFF7E4F9F6E700BFAFF3008057
:101BD00000000060FB210940003802400000024084
:101BE00000002110000802400802002000440040CC
:101BF000DB0F4940384500084C45000807B50E4B3F
:101C0000002100915A6C42F480425A645A6C02F4EA
:101C100080420092009A01911A6C42F080521A643C
:101C20001B6C03F0805301930720019BFFF7C4F95D
:101C300003B05DF804FB00BF0038024010B5044655
:101C400088B01422002103A800F01AF92268144B6E
:101C50009A4222D103F5FA33002101911A6C1148FE
:101C600042F400321A641A6C02F400320192019AB2
:101C700002911A6B42F001021A631B6B03F001031D
:101C80000293029B0C2303930223049303230693E2
:101C900003A907230793FFF7EBF908B010BD00BFB6
:101CA00000440040000002407047FEE7FEE7FEE708
:101CB000FEE7704770477047FFF758B970B50E469A
:101CC00015460C46A31B9D4201DC284670BDAFF3B0
:101CD000008004F8010BF5E710B54FF6FF731446CA
:101CE000024892B2FFF748FE204610BD08020020CD
:101CF00008B50A4B1968024609B9094919601868FC
:101D0000694602448A4206D900F090F80C23036029
:101D10004FF0FF3008BD1A6008BD00BFF801002079
:101D20004C0200204FF0FF3070474FF400534B60DF
:101D3000002070470120704700207047054BD3F802
:101D4000882042F47002C3F888204FF000629A6045
:101D5000704700BF00ED00E0DFF834D0002103E061
:101D60000C4B5B58435004310B480C4B42189A42C1
:101D7000F6D30B4A02E0002342F8043B094B9A4297
:101D8000F9D3FFF7DBFF00F057F8FFF7A1FE70472C
:101D9000000002204050000800000020DC0100206C
:101DA000DC0100204C020020FEE70000DFED1C7A81
:101DB00020EE270AF5EE007A30EE270AB5EEC00ACB
:101DC000F1EE10FAFDEEC07A04D517EE903A013B21
:101DD00007EE903AF8EEE77ADFED126A124A30EE3B
:101DE000670AB7EE007A20EE260AFCEEC07A17EEFC
:101DF000903AC3F3080307EE903AF8EE677A02EBE5
:101E0000830170EE677AD1ED016A91ED000A37EE39
:101E1000677A67EEA67A27EE000A30EE270A704747
:101E200083F9223E000000446C450008014B18680D
:101E3000704700BF0C00002070B50D4E0D4CA41B68
:101E4000A4100025A54209D10B4E0C4C02F068FBF2
:101E5000A41BA4100025A54205D170BD56F825305D
:101E600098470135EEE756F8253098470135F2E7F7
:101E70003850000838500008385000083C5000081E
:101E800002440346934200D1704703F8011BF9E76F
:101E90002DE9FF4755EC104B0D9FDDF830A0002DCC
:101EA0000E4691461946B8BF22462B4627F020071A
:101EB000BBBF05F100431D4600232D23B8BF1446C8
:101EC000462F0B7004D0452F00D10136022100E0CF
:101ED000032103AB019302AB00933246534645EC1A
:101EE000104B00F0E5FC472F804602D119F0010F9E
:101EF00026D0462F08EB060911D198F80030302B78
:101F00000AD10022002320462946FEF7F9FD18B920
:101F1000C6F10106CAF80060DAF8003099440022E0
:101F2000002320462946FEF7EBFD38B93022039BFB
:101F3000994505D9591C03911A70F8E7CDF80C9012
:101F4000039B0E9AA3EB08034046136004B0BDE860
:101F5000F087F7B503460029B8BF494203F8022BC2
:101F6000B4BF2D222B220929427020DD0DF107027A
:101F700017460A2691FBF6F506FB15113031092D9F
:101F800002F8011C02F1FF34294609DC3031023A23
:101F900004F8011CBA421C4604D3201A03B0F0BD59
:101FA0002246E7E712F8011B03F8011BF2E7302293
:101FB0001C46114404F8022B5970EEE72DE9F04F4E
:101FC0008DB00C46DDF8588016461F46054601F0D8
:101FD00007FB036804931846FEF71AF900230A93D7
:101FE000D8F800300590073323F0070303F1080207
:101FF00094F818A0D4F800B0C8F80020D3E9002362
:10200000C4E91223D4E9128929F000430793CDF8DB
:1020100018804FF0FF32A54BDDE90601FEF7A2FD67
:10202000002840F0FB814FF0FF32A04BDDE90601B4
:10203000FEF77AFD002840F0F1810022002340469F
:102040004946FEF767FD10B12D2384F84330984BC5
:10205000984ABAF1470F8CBF9046984603232BF05D
:102060000402236122604FF00009009733460BAA57
:102070002146284600F0E2F9013040F093804FF00D
:10208000FF300DB0BDE8F08F61684B1C4BF48062EF
:102090003FD106236360002303930AAB029309AB8D
:1020A000009349EC108B0DF123032260CDF804A0BE
:1020B00061682846FFF7ECFE0AF0DF03472B8046F5
:1020C00009D1099BD81C02DB6268934257DDAAF153
:1020D000020A5FFA8AFABAF1650F099934D8013910
:1020E000524604F150000991FFF733FF0A9A831812
:1020F000012A8146236102DC2268D10701D5013320
:1021000023619DF82330002BAFD02D2384F843307A
:10211000ABE7BAF1670F02D0BAF1470FBBD189B173
:10212000002303930AAB029309AB009349EC108B95
:102130002260CDF804A00DF123032846FFF7A8FE86
:102140008046BEE70123A5E7BAF1660F19D1002941
:1021500063680CDD216113B92268D20702D501330F
:102160000B442361099BA3654FF00009C9E713B92C
:102170002268D00701D50233F3E70123F1E74FF0DE
:10218000670A099B0A9A934205DB22682361D107FB
:10219000E8D50133E5E7002BD4BFC3F102030123E7
:1021A0001344DEE723685A0507D4236942463146C3
:1021B0002846B84701302BD161E7BAF1650F40F2EC
:1021C000E28000220023D4E91201FEF799FC0028E6
:1021D0003CD00123384A31462846B84701303FF405
:1021E0004EAF0A9B099A9A4202DB2368D8070FD5A3
:1021F000059B049A31462846B84701303FF43FAF6B
:102200004FF0000804F11A090A9B013B984512DBC4
:1022100023689B0709D54FF0000804F11909E3680A
:102220000B9A9B1A9845C0F2EE80E0680B9B98428F
:10223000B8BF184625E701234A4631462846B84725
:1022400001303FF41CAF08F10108DDE7099B002BCA
:1022500034DC0123184A31462846B84701303FF4A0
:102260000EAF099B23B90A9B13B92368D907CFD5B1
:10227000059B049A31462846B84701303FF4FFAE2B
:102280004FF0000904F11A0A099B5B42994501DBF2
:102290000A9B8BE70123524631462846B847013056
:1022A0003FF4EDAE09F10109EEE700BFFFFFEF7F5C
:1022B000744D0008784D0008844D00080A9AA36DFB
:1022C0009A42A8BF1A46002A914638DC04F11A0344
:1022D0004FF0000B29EAE9790693D4F858A0AAEB4D
:1022E00009039B4533DB0A9B099A9A423ADB236830
:1022F000DA0737D40A9B0999A3EB0A02A3EB010979
:102300009145A8BF9146B9F1000F33DC4FF00008AA
:1023100029EAE97904F11A0A099A0A9B9B1AA3EBA4
:1023200009039845BFF674AF01235246314628464B
:10233000B84701303FF4A3AE08F10108ECE71346BB
:10234000314642462846B8470130BFD197E60123BF
:10235000069A31462846B84701303FF490AE0BF15B
:10236000010BBAE7059B049A31462846B84701306D
:10237000C0D184E64B4608EB0A0231462846B847EE
:102380000130C3D17BE60A9A012A01DCDB0737D58D
:102390000123424631462846B84701303FF46FAE2C
:1023A000059B049A31462846B84701303FF467AE92
:1023B00000220023D4E91201FEF7A2FB58B14FF02E
:1023C000000804F11A0A0A9B013B98450DDB4B46B5
:1023D00004F15002EBE60A9B08F10102013B314691
:1023E0002846B8470130F2D149E60123524631462A
:1023F0002846B84701303FF442AE08F10108E2E751
:1024000001234246EBE701234A4631462846B847B6
:1024100001303FF434AE08F1010800E742464B4674
:1024200040464946FEF79EFB00283FF42DAE014B87
:10243000014A0EE67C4D0008804D00082DE9F0476A
:1024400091461F468A680B69DDF820809342B8BF29
:102450001346C9F8003091F8432006460C4612B1E5
:102460000133C9F800302368990642BFD9F800301B
:102470000233C9F80030256815F0060507D104F1CC
:10248000190AE368D9F800209B1A9D4229DB94F8C9
:1024900043302268003318BF012392062ED404F182
:1024A000430239463046C047013021D02368E568F1
:1024B000D9F8002003F00603042B08BFAD1AA36867
:1024C00022690CBF25EAE57500259342C4BF9B1A1B
:1024D000ED184FF000091A344D451BD10020BDE81E
:1024E000F0870123524639463046C047013003D1B8
:1024F0004FF0FF30BDE8F0870135C2E7E1185A1C04
:10250000302081F84300224494F8451082F84310AB
:102510000233C4E70123224639463046C047013022
:10252000E6D009F10109D7E72DE9F04317460A7E05
:1025300085B06E2A984606460C460C9B01F1430E68
:1025400000F0BC801AD8632A2ED00AD8002A00F0E6
:10255000C880582A00F08A8004F1420584F842209D
:102560002AE0642A01D0692AF6D121681A6811F09C
:10257000800F23D0111D1960136827E0732A00F023
:10258000B48008D86F2A2AD0702AE5D10A6842F0B0
:1025900020020A6003E0752A21D0782ADCD1782253
:1025A00084F845206E4964E01A6801F14205111D66
:1025B0001960136884F842300123A3E011F0400F42
:1025C00002F104011960D7D0B2F90030002B03DA10
:1025D0002D225B4284F8432062490A2217E02068DA
:1025E000196810F0800F03D0081D18600B6806E012
:1025F00010F0400F01F104001860F7D00B88594922
:102600006F2A14BF0A220822002084F8430065685C
:10261000A560002DC0F29C80206820F0040020609E
:10262000002B3FD1002D40F095807546082A0BD134
:102630002368DA0708D5236962689A42DEBF30232F
:1026400005F8013C05F1FF35AEEB05032361CDF83C
:1026500000803B4603AA21463046FFF7EFFE0130DB
:1026600055D14FF0FF3005B0BDE8F08381F845202B
:102670003C492268186812F0800F00F104051D60C3
:1026800001D0036802E05506FBD50388D00744BF9C
:1026900042F0200222601BB9226822F02002226050
:1026A0001022B1E77546B3FBF2F002FB1033CB5CAE
:1026B00005F8013D03460028F5D1B7E708681A6818
:1026C000496910F0800F04D0101D1860136819605C
:1026D00007E010F0400F02F1040018601368F6D014
:1026E0001980002323617546B1E71A68111D19602E
:1026F0001568626800212846FDF792FD08B1401B6D
:10270000606063682361002384F843309FE7236996
:102710002A4639463046C0470130A2D023689B077D
:1027200007D5002504F11909E368039A9B1A9D4215
:1027300005DBE068039B9842B8BF184693E7012386
:102740004A4639463046C04701308AD00135EBE76A
:10275000002BA7D10B7884F8423004F1420565E7DD
:10276000974D0008864D00080FB40A4B13B51C683E
:1027700024B1A36913B9204600F0A8FE05AB049A62
:10278000A1680193204601F001FB02B0BDE81040B2
:1027900004B070470C0000202DE9F74F03690C6965
:1027A0009C42804600F38280013C01F114074FEA0D
:1027B000840E00F1140657F8245056F8240006EB56
:1027C0000E03013507EB0E090193B0FBF5F595B348
:1027D0004FF0000A3846B446D34650F8042B93B263
:1027E00005FB03A34FEA134A9BB2ABEB0303120CA6
:1027F000BCF800B005FB02A213FA8BF34FEA124AB1
:102800001FFA82FBDCF80020CBEB124202EB2342E2
:102810009BB243EA024381454FEA224B4CF8043B0A
:10282000DBD256F80E3033B9019B043B9E421A4668
:1028300030D3C8F81040404601F0FDF8002825DBF1
:10284000013530464FF0000E57F8042BD0F800C089
:1028500093B2AEEB0303120C13FA8CF3C2EB1C42DF
:1028600002EB23429BB243EA0243B9454FEA224EB0
:1028700040F8043BE8D256F8242006EB84032AB93A
:10288000043B9E421A460BD3C8F81040284603B0BA
:10289000BDE8F08F1268043B002ACAD1013CC5E7AD
:1028A0001268043B002AEFD1013CEAE70020EEE782
:1028B0002DE9F04F57EC106B97B0CDE90067466AF1
:1028C000079104460A920F93209D3EB9102000F014
:1028D00095FE6062466086600660C660636A19683D
:1028E00051B15A684A60012393408B60204600F042
:1028F000CCFE636A00221A60019B002BBFBF01233C
:102900002B60019B23F00043B2BF019300232B6097
:10291000DDF80480A84B33EA08031BD10F9A42F27A
:102920000F731360009B23B9C8F31300002800F055
:102930007885219B53B9A14B21E0A14B0293083329
:10294000219A1360029817B0BDE8F08F9B4B029359
:102950000333F5E7DDE900670022002330463946FE
:10296000FEF7CEF8814660B10F9A01231360219BD8
:10297000002B00F05385934B219A1360013B029387
:10298000E0E714AA15A947EC106B204601F0CBF83C
:10299000C8F30A558246002D7ED0C7F3130343F0D7
:1029A0007F51304641F44011A5F2FF35CDF84890F3
:1029B0000022854BFDF788FC79A3D3E90023FDF7BE
:1029C00037FE79A3D3E90023FDF780FC06462846AD
:1029D0000F46FDF7C7FD76A3D3E90023FDF728FED8
:1029E00002460B4630463946FDF770FC06460F4658
:1029F000FEF7CEF800228346002330463946FEF724
:102A000089F858B15846FDF7ADFD02460B463046F1
:102A10003946FEF775F808B90BF1FF3BBBF1160F0D
:102A200059D86A4901EBCB01DDE90023D1E9000166
:102A3000FEF78EF8002850D00BF1FF3B00230E93D9
:102A4000149B5D1B6B1E069345BFC5F101030593E7
:102A5000002300234CBF06930593BBF1000F3EDB20
:102A6000069BCDF82CB05B44069300230893079B8C
:102A7000092B00F2AF80052BC4BF043B0793079BD3
:102A8000A3F10203CCBF00260126032B00F2AE8087
:102A9000DFE803F082842F77159B149D1D4405F217
:102AA0003243202B11DD009A05F21240C3F140039E
:102AB00022FA00F008FA03F31843FDF743FD01235F
:102AC000A1F1F871013D129372E7C3F12000009B60
:102AD00003FA00F0F1E70123B1E70E90B0E7059BA0
:102AE000A3EB0B030593CBF10003089300230B9397
:102AF000BDE7012309930A9B002B7ADD049303931E
:102B0000656A00226A60042101F114029A4275D9B3
:102B10006968204600F085FD636A28601B6802939F
:102B2000039B0E2B00F2E580002E00F0E2809DED6D
:102B3000007BBBF1000F8DED0C7B74DD234A0BF0A5
:102B40000F034FEA2B1602EBC303F006D3E900890B
:102B500059D51F4B51EC170BD3E90823FDF792FE13
:102B6000CDE9000106F00F060325194F002E4CD1C8
:102B700042464B46DDE90001FDF784FECDE9000148
:102B80006AE0012309930A9B5B4404930133012B00
:102B90000393B8BF0123B3E70023ABE70023F1E7BA
:102BA00061436F63A787D23FB3C8608B288AC63F53
:102BB000FB799F501344D33F0000F07FB14D0008D4
:102BC000A84D0008854D00080000F83F404E000861
:102BD000184E000801260023079309964FF0FF3393
:102BE00004930393002212230A9289E70123099395
:102BF000F4E70123049303931A46F5E76A68013268
:102C00006A60490080E70225AFE7F10708D5404632
:102C10004946D7E90023FDF70BFD0135804689467B
:102C200076100837A2E700F09D80CBF100069F4B9D
:102C30009F4F06F00F0203EBC203D3E90023DDE947
:102C40000C01FDF7F5FCCDE900013611002302254A
:102C5000002E7CD1002B91D10E9B002B00F08480A4
:102C6000DDE900890022934B40464946FDF752FFBB
:102C7000002879D0039B002B76D0049B002B34DDF9
:102C800000228D4B40464946FDF7D2FCCDE90001BC
:102C9000049E0BF1FF3701352846FDF763FCDDE9A3
:102CA0000023FDF7C5FC0022844BFDF70FFB804697
:102CB000A1F15079002E5AD10022814BDDE90001AB
:102CC000FDF702FB42464B46CDE90001FDF740FF10
:102CD000002840F09B82424609F10043DDE90001F3
:102CE000FDF718FF002840F08F82DDE90C23CDE9C5
:102CF0000023159B002BC0F25081BBF10E0F00F397
:102D00004C816A4B03EBCB03D3E900890A9B002B70
:102D100080F2DA80039B002B00F3D68040F07382B0
:102D20000022674B40464946FDF782FCDDE900235F
:102D3000FDF704FF039E3746002840F04A82029BBD
:102D4000029A5D1C312313700BF1010B45E2F2076F
:102D500005D5D7E90023FDF76BFC0135012376107B
:102D6000083775E7022577E75F46039E94E7029AE6
:102D70004E4B32441392099A711E002A48D003EB3D
:102D8000C103D3E9002300204E49FDF77BFD4246F5
:102D90004B46FDF799FA029D80468946DDE9000120
:102DA000FDF7F6FE0646FDF7DDFB02460B46DDE9C4
:102DB0000001FDF789FA303605F8016B42464B46B3
:102DC000CDE90001FDF7A6FE002865D1DDE900236D
:102DD00000203849FDF778FA42464B46FDF79AFE47
:102DE000002840F0BA80139B9D423FF47EAF002242
:102DF000314B40464946FDF71BFC00228046894680
:102E00002D4BDDE90001FDF713FCCDE90001C5E71D
:102E100003EBC10142464B46D1E90001FDF708FC36
:102E2000CDE91001029DDDE90001FDF7B1FE064686
:102E3000FDF798FB303602460B46DDE90001FDF751
:102E400043FA05F8016B139BAB42804689464FF06D
:102E5000000225D11B4BDDE91001FDF737FA0246D0
:102E60000B4640464946FDF773FE002875D1DDE963
:102E7000102300201349FDF727FA02460B4640466F
:102E80004946FDF747FE00283FF42FAF15F8013CF7
:102E9000302B05F1FF3201D0BB464DE01546F5E77A
:102EA000054BFDF7C5FBCDE90001BCE7404E00082E
:102EB000184E00080000F03F0000244000001C40B5
:102EC000000014400000E03FDDE90067029D42463B
:102ED0004B4630463946FDF7D5FCFDF759FE0090CC
:102EE000FDF740FB42464B46FDF7A2FB02460B4670
:102EF00030463946FDF7E8F9009E039F303605F865
:102F0000016B029EAE1BB74202460B4638D1FDF75D
:102F1000DDF906460F4602460B4640464946FDF798
:102F2000F9FDC8B932463B4640464946FDF7E8FD43
:102F300010B1009BDB070FD45146204600F0A5FBE3
:102F400000230F9A2B700BF101031360219B002BC0
:102F50003FF4F8AC1D60F5E45F4615F8012C392A02
:102F600005F1FF3306D1029A9A4207D1302313703C
:102F7000013713461A7801321A708DE71D46ECE7C7
:102F80000022A44BFDF754FB0022002306460F4607
:102F9000FDF7B6FD00289AD0CEE7099A002A00F086
:102FA000CD80079A012A00F3AF80129A002A00F020
:102FB000A78003F23343089E059D059A1A440592A3
:102FC000069A01211A442046069200F0FEFB0746AD
:102FD000002D0CDD069B002B09DDAB42059AA8BF36
:102FE0002B46D21A0592069AED1AD31A0693089B1D
:102FF000F3B1099B002B00F0A580002E10DD3946AF
:103000003246204600F078FC5246014607462046EC
:1030100000F0E4FB51468046204600F036FBC246F5
:10302000089B9A1B04D05146204600F065FC82465E
:103030000121204600F0C9FB0B9B002B064640F304
:1030400083801A460146204600F056FC079B012B60
:1030500006467CDD4FF00008336906EB83031869F0
:1030600000F065FBC0F12000069B184410F01F0023
:1030700000F09680C0F12003042B40F38780059B6D
:10308000C0F11C0003440593069B054403440693CA
:10309000059B002B05DD51461A46204600F07AFCC0
:1030A0008246069B002B05DD31461A46204600F07D
:1030B00071FC06460E9B002B74D03146504600F042
:1030C000BAFC00286EDA002351460A22204600F09E
:1030D000F3FA099B0BF1FF3B8246002B00F0A8811D
:1030E000002339460A22204600F0E6FA049B002B12
:1030F000074600F3C880079B022B40F3C48059E0C9
:10310000149BC3F1360356E7039B5E1E089BB34234
:10311000BFBF089B0896F21A0B9BB6BF9B189E1B5D
:103120000B93039BB8BF0026002BB9BF059B039AE6
:10313000059D039BBCBF9D1A00233EE7089E059D8D
:10314000099F45E7089A6EE7079B012B19DC009B56
:10315000BBB9019BC3F313039BB9019B23F000434D
:103160001B0D1B0583B1059B01330593069B0133A2
:1031700006934FF001080B9B002B7FF46DAF0120ED
:1031800072E74FF00008F6E79846F4E780D0059A1A
:103190001C331A440592069A1A441D44134676E7D6
:1031A0000346F4E7039B002B36DC079B022B33DD41
:1031B000039B0493049B63B931460522204600F02B
:1031C0007BFA01460646504600F035FC00283FF7E2
:1031D000B6AD0A9B029D6FEA030B002303933146B1
:1031E000204600F052FA002F3FF4A6AE039B2BB10D
:1031F000BB4203D01946204600F047FA3946204624
:1032000000F043FA98E600263746E2E7BB46374629
:1032100095E500BF00002440099B93BB039B0493EA
:10322000029D31465046FFF7B7FA00F1300905F824
:10323000019B029B049AEB1A9A4200F3DC80029BEA
:10324000012AACBF9B1801339846002303935146D3
:103250000122204600F09EFB3146824600F0EBFB47
:10326000002800F38D8003D119F0010F40F0888011
:10327000454615F8013C302B05F1FF32AFD115461C
:10328000F7E7039B0493002D05DD39462A462046C7
:1032900000F080FB0746B8F1000F4CD0796820465B
:1032A00000F0BFF93A6902320546920007F10C01BD
:1032B0000C3000F0ABF901222946204600F06AFBF1
:1032C000009BDDF80880039703F001030746059390
:1032D00031465046FFF760FA0399054600F1300980
:1032E000504600F0A8FB3A4600903146204600F0D8
:1032F000BCFBC368024603BB01460690504600F083
:103300009AFB069A034611462046069300F0BDF943
:10331000069BA3B9079A92B9059A82B9B9F1390FF8
:1033200029D0009B002B01DD05F1310908F10105D1
:1033300088F8009053E73846C2E70123E3E7009A94
:10334000002A04DB25D1079A1ABB059A0ABB002B79
:10335000ECDD51460122204600F01CFB314682463E
:1033600000F069FB002803DCE0D119F0010FDDD08B
:10337000B9F1390FD8D1392388F8003008F10108A4
:10338000454615F8013C392B05F1FF323BD001339E
:1033900040E0002B08F1010505DDB9F1390FEAD055
:1033A00009F10109C4E7029B049A05F8019CEB1A94
:1033B0009342A8463FF44BAF514600230A222046D1
:1033C00000F07AF9039B0399BB4282464FF0000359
:1033D0004FF00A02204604D100F06EF90390074630
:1033E00076E700F069F9002303900A223946204667
:1033F00000F062F9F3E7514600230A22204600F06C
:103400005BF982460DE7029B934205D1029A0BF1CC
:10341000010B31231370E2E61546B2E7094BFFF7C3
:10342000AEBA219B002B7FF488AA074BFFF7A7BAFF
:10343000049B002B3FF7F4AE079B022B7FF7F0AE07
:10344000B8E600BF844D0008A84D0008014900F00F
:10345000A9B800BF35430008002310B50446036037
:103460004360836081814366C281036143618361FC
:10347000194608225C30FEF703FD054B6362054BDD
:10348000A362054BE362054B2462236310BD00BFBA
:10349000D93F0008FB3F00083340000857400008B0
:1034A00070B54A1E682555430E4605F1740100F0BB
:1034B000E5FB044640B1002180E842000C30A060EA
:1034C00005F16802FEF7DCFC204670BD836910B58B
:1034D000044633BB8364C3640365124B124A1B6802
:1034E0008262984204BF0123836100F01FF860608C
:1034F000204600F01BF8A060204600F017F80022DC
:10350000E06004216068FFF7A7FF01220921A0689D
:10351000FFF7A2FF02221221E068FFF79DFF0123BF
:10352000A36110BD704D00084D340008F8B51C4B68
:103530001E68B369074613B93046FFF7C7FF483620
:10354000B4687368013B03D5336833B13668F7E775
:10355000B4F90C506DB16834F4E704213846FFF734
:103560009FFF30600028F1D10C233B6004462046C9
:10357000F8BD4FF6FF73E3810123A38165662560E3
:10358000A560656025616561A5610822294604F191
:103590005C00FEF775FC6563A563A564E564E6E77A
:1035A000704D00082DE9F8438046894600F1480433
:1035B000002614B93046BDE8F883A5686768013F66
:1035C00001D52468F5E7AB89012B07D9B5F90E3091
:1035D000013303D029464046C84706436835EEE725
:1035E000044B1B68186A044B002808BF1846F030CB
:1035F000704700BF0C00002070000020024B014605
:10360000186800F03BBB00BF0C00002010B5431E43
:103610000A44914200D110BD11F8014B03F8014F4B
:10362000F7E770B5456A04460E463DB91020FFF72E
:10363000E5FF6062456085600560C560656AEB68AE
:1036400083B1636ADB6853F82600B8B9012101FA37
:1036500006F56A1D9200204600F0B4FA60B146609B
:1036600085600EE021220421204600F0ABFA636A57
:10367000E860DB68002BE4D1002070BD026843F8ED
:10368000262000230361C36070BD70B5446A0646FE
:103690000D463CB91020FFF7B1FF706244608460B2
:1036A0000460C4603DB1736A6A68DB6853F8221035
:1036B000296043F8225070BD2DE9F0410D691F4685
:1036C00006460C4601F1140E0023DEF8000081B21C
:1036D00002FB01710F0C000C02FB007089B2013378
:1036E00001EB00419D424FEA10474EF8041BECDC11
:1036F000D7B1A3689D4212DB616830460131FFF704
:1037000090FF2269023204F10C01804692000C30D5
:10371000FFF77CFF21463046FFF7B7FF444604EB36
:10372000850301355F6125612046BDE8F081020C0B
:1037300012040346B2B90304102013F07F4F04BFF4
:103740001B02083013F0704F04BF1B01043013F04C
:10375000404F04BF9B000230002B06DB5B0003D50B
:10376000013070470020E8E720207047036813F01D
:10377000070201460BD0DA0723D4980749BF5B083C
:103780009B0801200B605CBF0B600220704798B261
:10379000A8B91B0C102013F0FF0F04BF1B0A083040
:1037A0001A0704BF1B0904309A0704BF9B080230A4
:1037B000DA0702D45B0806D001300B607047104670
:1037C000E9E7002070472020704710B50C46012122
:1037D000FFF727FF01224461026110BD2DE9F74F79
:1037E00014460A6923699A42B8BF0B468946BCBF92
:1037F000A1461C46D9F81070D4F810A0D9F80830AA
:10380000D9F8041007EB0A069E42C8BF0131FFF742
:1038100008FF00F1140505EB86082B4600224345FE
:1038200016D304F1140209F1140102EB8A0301EB2F
:1038300087070193019C944213460CD8002E03DDA8
:1038400058F8043D002B54D0066103B0BDE8F08F5A
:1038500043F8042BE3E7B3F800A00432BAF1000FF9
:1038600020D0AE4689464FF0000C59F8044BBEF804
:1038700000B0A3B20AFB03B34FEA144BDEF80040DA
:1038800063444FEA144C0AFB0BC404EB13449BB291
:1038900043EA04434F454FEA144C4EF8043BE4D846
:1038A000CEF800C032F8029CB9F1000F1FD02B688F
:1038B000AE468C464FF0000ABCF80040BEF802B09D
:1038C00009FB04B4A2449BB243EA0A434EF8043B0A
:1038D0005CF8043BBEF800401B0C09FB034303EB00
:1038E0001A4367454FEA134AE6D8CEF8003004354C
:1038F000A0E7013EA2E700002DE9F843154612F0CB
:10390000030206460F4607D0013A214C002354F823
:103910002220FFF7D1FE0746AD1035D0746A3CB9BE
:103920001020FFF76BFE7062446084600460C46026
:10393000D6F82480D8F808404CB940F271213046BE
:10394000FFF743FF0023C8F80800044603604FF068
:103950000008EB070AD5394622463046FFF73EFFFE
:10396000394681463046FFF790FE4F466D100BD02A
:10397000206838B9224621463046FFF72FFF2060E5
:10398000C0F800800446E4E73846BDE8F88300BF8D
:10399000084F00082DE9F0470C464FEA621A2369E8
:1039A00049680AEB0309A3680746164609F10105B1
:1039B000AB4231DB3846FFF734FE0022804600F18F
:1039C0001403114652452ADB20692AEAEA7A04F1F7
:1039D000140116F01F0203EB8A0301EB800E22D0C4
:1039E000C2F1200C00200E689640304343F8040BCF
:1039F00051F8040B8E4520FA0CF0F4D8186008B189
:103A000009F10205013D3846C8F810502146FFF77C
:103A10003CFE4046BDE8F08701315B00C8E743F853
:103A200022100132CEE7043B51F8042B43F8042F57
:103A30008E45F9D8E6E703690A699B1A30B50CD1BF
:103A40009200143014318418114454F8045D51F874
:103A5000042D954203D005D30123184630BDA04262
:103A6000F3D3FAE74FF0FF33F7E72DE9F0470D46C0
:103A70000746114628461446FFF7DDFF061E08D10B
:103A800031463846FFF7CDFD012303614661BDE8AD
:103A9000F087A4BF23462C4638466168A6BF1D4662
:103AA00000260126FFF7BDFD2B69C660266905F1DA
:103AB000140904F1140202EB860709EB830800F1F4
:103AC00014054FF0000C52F804AB59F8044B1CFAE3
:103AD0008AF1A3B2C91A230CC3EB1A4303EB2143A7
:103AE00089B24FEA234CC84541EA0343964645F85C
:103AF000043BE8D8BE4505D355F8043D8BB10661BB
:103B0000BDE8F0875EF8041B1CFA81F31A1402EB7F
:103B100011429BB243EA02434FEA224C45F8043B70
:103B2000E8E7013EE8E72DE9F7430E46012159ECAD
:103B3000108B1546FFF775FDC9F30A540746C9F304
:103B4000130334BB0193B8F1000F27D002A840F84B
:103B5000088DFFF70BFE0099F0B1019AC0F1200328
:103B600002FA03F30B43C2407B610192019BBB61EC
:103B7000002B14BF022101213961C4B1A4F23344E6
:103B800004443460C0F135002860384603B0BDE815
:103B9000F08343F48013D5E77961E7E701A8FFF7E5
:103BA000E5FD019B7B61012139612030E5E707EBF1
:103BB0008103A0F2324030601869FFF7B8FDC0EB16
:103BC0004110E1E738B502FB01F4214600F056F858
:103BD000054618B122460021FEF752F9284638BDA5
:103BE00038B50546002945D051F8043C0C1F002B80
:103BF000B8BFE41800F050FC1F4A1368104633B9F0
:103C0000636014602846BDE8384000F046BCA3421B
:103C10000CD921686218934204BF1A685B6863601C
:103C200004BF521822600460ECE713465A680AB1D8
:103C3000A242FAD919685818A0420BD12068014451
:103C4000581882421960DDD1106852685A600144E8
:103C50001960D7E702D90C232B60D3E7206821181D
:103C60008A4204BF11685268626004BF091821606B
:103C70005C60C7E738BD00BFFC01002070B5CD1CFB
:103C800025F0030508350C2D38BF0C25002D064600
:103C900001DBA94203D90C233360002070BD00F082
:103CA000FBFB234A1468214691B9224C23681BB9B7
:103CB000304600F081F920602946304600F07CF95A
:103CC000431C26D10C233360304600F0E6FBE4E7CA
:103CD0000B685B1B1AD40B2B0FD90B60CD50CC1883
:103CE000304600F0DAFB04F10B00231D20F0070042
:103CF000C31A1BD05A42E25070BD8C420DBF63689C
:103D00004B686360136018BF0C46E9E70C464968CE
:103D1000CAE7C41C24F00304A04205D0211A30468F
:103D200000F04AF90130CDD02560D9E770BD00BF61
:103D3000FC010020000200209368013B002B10B41E
:103D4000936009DA9469A34202DBCBB20A2B03D158
:103D50005DF8044B00F084B91368581C10601970AA
:103D6000C8B25DF8044B7047F8B506460F461446D6
:103D7000D518AC4201D1002007E03A4614F8011BE7
:103D80003046FFF7D9FF431CF3D1F8BD2DE9F04FC2
:103D90009DB00C4617460393064618B183690BB9CC
:103DA000FFF794FB7C4B9C4257D17468A38918079A
:103DB0005DD52369002B5AD00023099320238DF869
:103DC000293030238DF82A304FF0010BB846454694
:103DD00015F8013B002B55D1B8EB070A0BD0534621
:103DE0003A4621463046FFF7BFFF013000F0C4805D
:103DF000099B5344099398F80030002B00F0BC80D5
:103E000000234FF0FF3204930793059206938DF839
:103E100053301A93052229786048FCF701FA05F11E
:103E20000108049B002831D1D90644BF20228DF817
:103E300053201A0744BF2B228DF853202A782A2AB0
:103E40002CD0079A00210A20A846013598F80030A6
:103E5000303B092B6DD971B326E0514B9C4201D107
:103E6000B468A3E74F4B9C4208BFF4689EE7214625
:103E7000304600F059F900289ED04FF0FF301DB0B9
:103E8000BDE8F08F252BA7D0A846A0E7434A801AAB
:103E90000BFA00F0184304904546BBE7039A111D46
:103EA00012680391002A01DB079204E0524243F0BA
:103EB00002030792049398F800302E2B10D198F843
:103EC00001302A2B08F1010137D1039B1A1D1B6811
:103ED0000392002BB8BF4FF0FF3308F1020805939F
:103EE000314D98F8001003222846FCF799F940B1AB
:103EF0004023401B03FA00F0049B0343049308F1A2
:103F0000010898F8001029488DF82810062208F1B9
:103F10000107FCF785F9002834D0254B03BB039B30
:103F2000073323F0070308330393099B4B4409939A
:103F30004CE700FB0232012186E700230593184677
:103F40000A258846013198F80020303A092A03D919
:103F5000002BC5D00590C3E705FB00200123F0E747
:103F600003AB00932246134B04A93046FEF726F814
:103F7000B0F1FF3F8146D8D1A3895B063FF57DAF05
:103F800009987CE703AB009322460A4B04A930460C
:103F9000FEF7CAFAECE700BFD84D0008144F00083E
:103FA000F84D0008B84D00081A4F00081E4F0008D1
:103FB000BD1F0008693D000838B5064C00230546C2
:103FC00008462360FDF794FE431C02D1236803B129
:103FD0002B6038BD4802002010B50C46B1F90E1018
:103FE00000F05CFA0028ABBF636DA3891B1823F4B3
:103FF0008053ACBF6365A38110BD2DE9F0411F461E
:104000008B89DB0505460C46164605D502230022A2
:10401000B1F90E1000F0B8F9A389B4F90E1023F429
:104020008053A38132463B462846BDE8F04100F06C
:1040300069B810B50C46B1F90E1000F0A5F9431C93
:10404000A38915BF606523F4805343F48053A38193
:1040500018BFA38110BDB1F90E1000F0D3B8000055
:10406000F8B50E461446054618B183690BB9FFF73B
:104070002DFA214B9C422AD16C68A369A360A389C5
:104080001A072ED5236963B323692068C01A6369B0
:10409000F6B29842374604DB2146284600F04AF93A
:1040A00028BBA368013BA36023685A1C22601E70D2
:1040B00063690130984204D0A389DB0719D50A2E21
:1040C00017D12146284600F035F990B10FE00B4B8F
:1040D0009C4201D1AC68D0E7094B9C4208BFEC6818
:1040E000CBE72146284600F01FF80028CCD04FF03F
:1040F000FF373846F8BD00BFD84D0008F84D00081E
:10410000B84D000838B5074C054608461146002250
:1041100022601A46FDF7E0FD431C02D1236803B17B
:104120002B6038BD48020020324B70B51D68064632
:104130000C4625B1AB6913B92846FFF7C7F92E4BDA
:104140009C420FD16C68B4F90C309AB215072CD48C
:10415000D00611D40922326043F04003A3814FF00E
:10416000FF3070BD254B9C4201D1AC68EBE7244B7E
:104170009C4208BFEC68E6E7510712D5616B41B17C
:1041800004F14403994202D03046FFF729FD002391
:104190006363A38923F02403A3810023636023695D
:1041A0002360A38943F00803A38123694BB9A38942
:1041B00003F42073B3F5007F03D02146304600F0AE
:1041C00019F9A28912F001030CD00023A3606369DE
:1041D0005B42A361236953B9B4F90C3013F080003A
:1041E000BAD170BD920758BF6369A360F2E700209F
:1041F000F7E700BF0C000020D84D0008F84D00087C
:10420000B84D000838B5064C002305460846236023
:10421000FDF788FD431C02D1236803B12B6038BD34
:10422000480200208A892DE9F041054610070C4616
:104230005AD44B68002B05DC0B6C002B02DC0020F1
:10424000BDE8F081E66A002EF9D0002312F4805216
:104250002F682B6033D0606DA3895A0705D563683A
:10426000C01A636B0BB1236CC01A00230246E66AC6
:10427000216A2846B047431CA38906D129681D2915
:104280004BD82B4ACA40D60747D500226260D904D2
:104290002269226004D5421C01D12B6803B96065F4
:1042A000616B2F600029CAD004F14403994202D007
:1042B0002846FFF795FC00206063BDE8F081216A85
:1042C00001232846B047411CC6D12B68002BC3D020
:1042D0001D2B01D0162B01D12F60B0E7A38943F02D
:1042E0004003A381BDE8F0810F69002FA7D0930799
:1042F0000E6808BF4B690F6018BF0023A6EB0708C4
:104300008B60B8F1000F9ADD43463A46216AA66AEF
:104310002846B047002807DCA38943F04003A38167
:104320004FF0FF30BDE8F0810744A8EB0008E8E754
:104330000100402038B50B6905460C46DBB118B1C9
:1043400083690BB9FFF7C2F80C4B9C4209D16C682A
:10435000B4F90C307BB121462846BDE83840FFF760
:1043600061BF074B9C4201D1AC68F1E7054B9C4211
:1043700008BFEC68ECE7002038BD00BFD84D00084E
:10438000F84D0008B84D000838B5074C05460846FA
:104390001146002222601A46FDF7CEFC431C02D1D2
:1043A000236803B12B6038BD4802002070B50E466B
:1043B000B1F90E10002990B014461D4607DA00230B
:1043C0002B60B3891A0610D44FF480630EE001AA63
:1043D00000F084F80028F2DB029A02F47042A2F5A1
:1043E00000535A425A412A60EEE7402300202360DE
:1043F00010B070BD8B8973B59D0706460C4607D576
:1044000004F14703236023610123636102B070BD9F
:1044100001AB6A46FFF7CAFF009905463046FFF731
:104420002DFC48B9B4F90C309A05EFD423F00303FE
:1044300043F00203A381E3E70D4BB362A38920603D
:1044400043F08003A381009B6361019B20615BB10A
:10445000B4F90E10304600F053F828B1A38923F0C8
:10446000030343F00103A381A3891D43A581CDE785
:104470004D34000882B001B901A942B14BB11378A3
:104480000B601278101C18BF012002B07047104654
:10449000FBE76FF00100F8E77047704738B5074C4D
:1044A000054608461146002222601A46FDF706FC22
:1044B000431C02D1236803B12B6038BD48020020A1
:1044C00049B1FF2A85BF8A2303600A704FF0FF308D
:1044D00098BF0120704708467047000038B5074C68
:1044E00000230546084611462360FDF71EFC431CC9
:1044F00002D1236803B12B6038BD00BF4802002001
:1045000038B5064C0023054608462360FDF712FC2B
:10451000431C02D1236803B12B6038BD4802002040
:10452000F8B500BFF8BC08BC9E467047F8B500BFA0
:08453000F8BC08BC9E46704770
:1045380061726D5F636F7328256629206973202572
:10454800660D0A00706F20256C640A0000000000E8
:10455800000000000102030406070809000000002B
:104568000102030400000000920E493CB10AC93C54
:104578002BC3163D2EFB483D752B7B3D04A9963D6C
:1045880080B6AF3D36BDC83D2FBCE13D73B2FA3DA4
:1045980087CF093E8340163EB5AB223EA2102F3E80
:1045A800CF6E3B3EC2C5473E0115543E135C603E8C
:1045B8007F9A6C3ECCCF783EC07D823E938E883EFB
:1045C800229A8E3E32A0943E86A09A3EE59AA03E5C
:1045D800128FA63ED47CAC3EEF63B23E2A44B83E6E
:1045E800491DBE3E15EFC33E53B9C93ECA7BCF3EF7
:1045F8004136D53E80E8DA3E4F92E03E7533E63EDE
:10460800BBCBEB3EEA5AF13ECBE0F63E275DFC3EE3
:10461800E4E7003F3D9C033F824B063F9BF5083F84
:104628006B9A0B3FDA390E3FCDD3103F2A68133F00
:10463800D9F6153FC07F183FC6021B3FD17F1D3FEB
:10464800CBF61F3F9967223F25D2243F5636273F96
:104658001594293F4AEB2B3FDE3B2E3FBB85303F6D
:10466800C9C8323FF304353F233A373F4268393FE0
:104678003B8F3B3FF9AE3D3F67C73F3F70D8413F57
:1046880001E2433F03E4453F65DE473F12D1493F1E
:10469800F8BB4B3F029F4D3F207A4F3F3D4D513F66
:1046A8004918533F31DB543FE595563F5348583F2F
:1046B8006AF2593F1A945B3F532D5D3F05BE5E3F3A
:1046C8002146603F97C5613F5A3C633F59AA643F02
:1046D800880F663FD86B673F3CBF683FA7096A3FB2
:1046E8000C4B6B3F5E836C3F93B26D3F9ED86E3F21
:1046F80073F56F3F0809713F5213723F4714733FB8
:10470800DD0B743F0BFA743FC6DE753F07BA763F80
:10471800C58B773FF853783F9812793F9DC7793F0B
:1047280002737A3FBE147B3FCDAC7B3F283B7C3F76
:10473800C9BF7C3FAC3A7D3FCCAB7D3F23137E3F66
:10474800B0707E3F6DC47E3F580E7F3F6D4E7F3FF9
:10475800AB847F3F0FB17F3F97D37F3F43EC7F3FD1
:1047680011FB7F3F0000803F11FB7F3F43EC7F3F01
:1047780097D37F3F0FB17F3FAB847F3F6D4E7F3F25
:10478800580E7F3F6DC47E3FB0707E3F23137E3F3F
:10479800CCAB7D3FAC3A7D3FC9BF7C3F283B7C3FDB
:1047A800CDAC7B3FBE147B3F02737A3F9DC7793FF8
:1047B8009812793FF853783FC58B773F07BA763F11
:1047C800C6DE753F0BFA743FDD0B743F4714733F29
:1047D8005213723F0809713F73F56F3F9ED86E3FC1
:1047E80093B26D3F5E836C3F0C4B6B3FA7096A3FEA
:1047F8003CBF683FD86B673F880F663F59AA643F44
:104808005A3C633F97C5613F2146603F05BE5E3F06
:10481800532D5D3F1A945B3F6AF2593F5348583F06
:10482800E595563F31DB543F4918533F3D4D513FC5
:10483800207A4F3F029F4D3FF8BB4B3F12D1493F73
:1048480065DE473F03E4453F01E2433F70D8413FFF
:1048580067C73F3FF9AE3D3F3B8F3B3F4268393F1B
:10486800233A373FF304353FC9C8323FBB85303F51
:10487800DE3B2E3F4AEB2B3F1594293F5636273F08
:1048880025D2243F9967223FCBF61F3FD17F1D3F9A
:10489800C6021B3FC07F183FD9F6153F2A68133F51
:1048A800CDD3103FDA390E3F6B9A0B3F9BF5083F8B
:1048B800824B063F3D9C033FE4E7003F275DFC3EFB
:1048C800CBE0F63EEA5AF13EBBCBEB3E7533E63E13
:1048D8004F92E03E80E8DA3E4136D53ECA7BCF3E75
:1048E80053B9C93E15EFC33E491DBE3E2A44B83EE2
:1048F800EF63B23ED47CAC3E128FA63EE59AA03E52
:1049080086A09A3E32A0943E229A8E3E938E883E8E
:10491800C07D823ECCCF783E7F9A6C3E135C603E71
:104928000115543EC2C5473ECF6E3B3EA2102F3EF6
:10493800B5AB223E8340163E87CF093E73B2FA3D9F
:104948002FBCE13D36BDC83D80B6AF3D04A9963DBC
:10495800752B7B3D2EFB483D2BC3163DB10AC93C48
:10496800920E493C00000000920E49BCB10AC9BC35
:104978002BC316BD2EFB48BD752B7BBD04A996BD68
:1049880080B6AFBD36BDC8BD2FBCE1BD73B2FABDA0
:1049980087CF09BE834016BEB5AB22BEA2102FBE7C
:1049A800CF6E3BBEC2C547BE011554BE135C60BE88
:1049B8007F9A6CBECCCF78BEC07D82BE938E88BEF7
:1049C800229A8EBE32A094BE86A09ABEE59AA0BE58
:1049D800128FA6BED47CACBEEF63B2BE2A44B8BE6A
:1049E800491DBEBE15EFC3BE53B9C9BECA7BCFBEF3
:1049F8004136D5BE80E8DABE4F92E0BE7533E6BEDA
:104A0800BBCBEBBEEA5AF1BECBE0F6BE275DFCBEDF
:104A1800E4E700BF3D9C03BF824B06BF9BF508BF80
:104A28006B9A0BBFDA390EBFCDD310BF2A6813BFFC
:104A3800D9F615BFC07F18BFC6021BBFD17F1DBFE7
:104A4800CBF61FBF996722BF25D224BF563627BF92
:104A5800159429BF4AEB2BBFDE3B2EBFBB8530BF69
:104A6800C9C832BFF30435BF233A37BF426839BFDC
:104A78003B8F3BBFF9AE3DBF67C73FBF70D841BF53
:104A880001E243BF03E445BF65DE47BF12D149BF1A
:104A9800F8BB4BBF029F4DBF207A4FBF3D4D51BF62
:104AA800491853BF31DB54BFE59556BF534858BF2B
:104AB8006AF259BF1A945BBF532D5DBF05BE5EBF36
:104AC800214660BF97C561BF5A3C63BF59AA64BFFE
:104AD800880F66BFD86B67BF3CBF68BFA7096ABFAE
:104AE8000C4B6BBF5E836CBF93B26DBF9ED86EBF1D
:104AF80073F56FBF080971BF521372BF471473BFB4
:104B0800DD0B74BF0BFA74BFC6DE75BF07BA76BF7C
:104B1800C58B77BFF85378BF981279BF9DC779BF07
:104B280002737ABFBE147BBFCDAC7BBF283B7CBF72
:104B3800C9BF7CBFAC3A7DBFCCAB7DBF23137EBF62
:104B4800B0707EBF6DC47EBF580E7FBF6D4E7FBFF5
:104B5800AB847FBF0FB17FBF97D37FBF43EC7FBFCD
:104B680011FB7FBF000080BF11FB7FBF43EC7FBFFD
:104B780097D37FBF0FB17FBFAB847FBF6D4E7FBF21
:104B8800580E7FBF6DC47EBFB0707EBF23137EBF3B
:104B9800CCAB7DBFAC3A7DBFC9BF7CBF283B7CBFD7
:104BA800CDAC7BBFBE147BBF02737ABF9DC779BFF4
:104BB800981279BFF85378BFC58B77BF07BA76BF0D
:104BC800C6DE75BF0BFA74BFDD0B74BF471473BF25
:104BD800521372BF080971BF73F56FBF9ED86EBFBD
:104BE80093B26DBF5E836CBF0C4B6BBFA7096ABFE6
:104BF8003CBF68BFD86B67BF880F66BF59AA64BF40
:104C08005A3C63BF97C561BF214660BF05BE5EBF02
:104C1800532D5DBF1A945BBF6AF259BF534858BF02
:104C2800E59556BF31DB54BF491853BF3D4D51BFC1
:104C3800207A4FBF029F4DBFF8BB4BBF12D149BF6F
:104C480065DE47BF03E445BF01E243BF70D841BFFB
:104C580067C73FBFF9AE3DBF3B8F3BBF426839BF17
:104C6800233A37BFF30435BFC9C832BFBB8530BF4D
:104C7800DE3B2EBF4AEB2BBF159429BF563627BF04
:104C880025D224BF996722BFCBF61FBFD17F1DBF96
:104C9800C6021BBFC07F18BFD9F615BF2A6813BF4D
:104CA800CDD310BFDA390EBF6B9A0BBF9BF508BF87
:104CB800824B06BF3D9C03BFE4E700BF275DFCBEF7
:104CC800CBE0F6BEEA5AF1BEBBCBEBBE7533E6BE0F
:104CD8004F92E0BE80E8DABE4136D5BECA7BCFBE71
:104CE80053B9C9BE15EFC3BE491DBEBE2A44B8BEDE
:104CF800EF63B2BED47CACBE128FA6BEE59AA0BE4E
:104D080086A09ABE32A094BE229A8EBE938E88BE8A
:104D1800C07D82BECCCF78BE7F9A6CBE135C60BE6D
:104D2800011554BEC2C547BECF6E3BBEA2102FBEF2
:104D3800B5AB22BE834016BE87CF09BE73B2FABD9B
:104D48002FBCE1BD36BDC8BD80B6AFBD04A996BDB8
:104D5800752B7BBD2EFB48BD2BC316BDB10AC9BC44
:104D6800920E49BC0000008010000020494E460009
:104D7800696E66004E414E006E616E003000303143
:104D880032333435363738394142434445460030AA
:104D980031323334353637383961626364656600D9
:104DA800496E66696E697479004E614E00000000B4
:104DB80000000000000000000000000000000000EB
:104DC80000000000000000000000000000000000DB
:104DD80000000000000000000000000000000000CB
:104DE80000000000000000000000000000000000BB
:104DF80000000000000000000000000000000000AB
:104E0800000000000000000000000000000000009A
:104E18000080E03779C34143176E05B5B5B89346AE
:104E2800F5F93FE9034F384D321D30F94877825A7A
:104E38003CBF737FDD4F1575000000000000F03F98
:104E4800000000000000244000000000000059405D
:104E58000000000000408F40000000000088C340B0
:104E680000000000006AF8400000000080842E4125
:104E780000000000D01263410000000084D7974171
:104E88000000000065CDCD41000000205FA0024277
:104E9800000000E876483742000000A2941A6D42EC
:104EA800000040E59C30A2420000901EC4BCD642DF
:104EB80000003426F56B0C430080E03779C341438A
:104EC80000A0D8855734764300C84E676DC1AB4300
:104ED800003D9160E458E143408CB5781DAF15441E
:104EE80050EFE2D6E41A4B4492D54D06CFF08044F9
:104EF800F64AE1C7022DB544B49DD9794378EA440E
:104F080005000000190000007D000000232D302B53
:104F18002000686C4C0065666745464700430050B2
:104F28004F534958002E0000202020202020202008
:104F38002028282828282020202020202020202041
:104F48002020202020202020881010101010101061
:104F580010101010101010100404040404040404A9
:104F6800040410101010101010414141414141013A
:104F78000101010101010101010101010101010119
:104F88000101011010101010104242424242420228
:104F980002020202020202020202020202020202E9
:104FA8000202021010101020000000000000000093
:104FB80000000000000000000000000000000000E9
:104FC80000000000000000000000000000000000D9
:104FD80000000000000000000000000000000000C9
:104FE80000000000000000000000000000000000B9
:104FF80000000000000000000000000000000000A9
:105008000000000000000000000000000000000098
:105018000000000000000000000000000000000088
:08502800000000000000000080
:08503000E0BBFF7F010000005E
:04503800F501000876
:04503C00D101000896
:1050400001000000100000000024F4001000002007
:1050500000000000D84D0008F84D0008B84D0008C9
:105060000000000000000000000000000000000040
:105070000000000000000000000000000000000030
:105080000000000000000000000000000000000020
:105090000000000000000000000000000000000010
:1050A0000000000000000000000000000000000000
:1050B00043000000000000000000000000000000AD
:1050C00000000000000000000000000000000000E0
:1050D000430000000000000000000000000000008D
:1050E00000000000000000000000000000000000C0
:1050F000430000000000000000000000000000006D
:10510000000000000000000000000000000000009F
:10511000430000000000000000000000000000004C
:10512000000000000000000000000000000000007F
:10513000430000000000000000000000000000002C
:10514000000000000000000000000000000000005F
:10515000430000000000000000000000000000000C
:10516000000000000000000000000000000000003F
:1051700043000000000000000000000000000000EC
:10518000000000000000000000000000000000001F
:10519000C144000875440008000000002F4F0008BB
:1051A0002D4F00084B4500084B4500084B450008B3
:1051B0004B4500084B4500084B4500084B4500088F
:1051C0004B4500084B450008FFFFFFFFFFFFFFFFB7
:1051D000FFFFFFFFFFFF000001004153434949006B
:1051E00000000000000000000000000000000000BF
:1051F0000000000000000000000041534349490046
:10520000000000000000000000000000000000009E
:0C52100000000000000000000000000092
:0400000508001D5979
:00000001FF
